:100000000C9462000C948A000C948A000C948A0070
:100010000C948A000C948A000C948A000C948A0038
:100020000C948A000C948A000C948A000C940B06A1
:100030000C948A000C948A000C948A000C948A0018
:100040000C94C1050C948A000C948A000C948A00CC
:100050000C948A000C948A000C948A000C948A00F8
:100060000C94C7060C948A000000000024002700AE
:100070002A0000000000250028002B0000000000DE
:1000800023002600290004040404040404040202DA
:100090000202020203030303030301020408102007
:1000A0004080010204081020010204081020000012
:1000B0000008000201000003040700000000000027
:1000C0000000E60711241FBECFEFD8E0DEBFCDBF92
:1000D00011E0A0E0B1E0EAEAF9E102C005900D927A
:1000E000A036B107D9F722E0A0E6B1E001C01D9229
:1000F000AE37B207E1F710E0C2E6D0E004C02197C6
:10010000FE010E94CD0CC136D107C9F70E942C0810
:100110000C94D30C0C9400008F929F92AF92BF92DC
:10012000FF920F931F93CF93DF93F0906F022BE01A
:100130002F1508F44CC02091710208E512E0021B53
:10014000110927FD1395000F111F000F111F20919A
:100150007002C8E8D0E0C21BD10927FDD395CC0FAF
:10016000DD1FCC0FDD1F4E010D2E000CAA08BB08B1
:100170009801012E000C440B550B281939094A0926
:100180005B09DC010E94590C24EB30E040E050E0B8
:100190000E942F0C820E931EA41EB51E8C169D0667
:1001A0002CF0E801801691060CF4E4012297CC0FA4
:1001B000DD1F2FB7F8948F2D90E0FC01EE0FFF1F8D
:1001C000E80FF91FE65BFD4FD283C1832FBFDF919C
:1001D000CF911F910F91FF90BF90AF909F908F9004
:1001E000089580E480937C0080917A0080648093FD
:1001F0007A0080917A0086FDFCCF80917800909102
:1002000079000895833081F028F4813099F08230AC
:10021000A9F008958730A9F08830C9F08430B1F48E
:10022000809180008F7D03C0809180008F778093C4
:100230008000089584B58F7784BD089584B58F7D3F
:10024000FBCF8091B0008F778093B00008958091AC
:10025000B0008F7DF9CFCF93DF93E1EBF0E0849195
:10026000EDE9F0E0D491E9E8F0E0C491CC23A1F00D
:1002700081110E940201EC2FF0E0EE0FFF1FE45805
:10028000FF4FA591B491EC91ED2381E090E009F44A
:1002900080E0DF91CF91089580E090E0FACF1F9346
:1002A000CF93DF93282F30E0F901E255FF4F84917F
:1002B000F901E656FF4FD491F901EA57FF4FC49177
:1002C000CC23A9F0162F81110E940201EC2FF0E03F
:1002D000EE0FFF1FEE58FF4FA591B4918FB7F89422
:1002E000EC91111108C0D095DE23DC938FBFDF9114
:1002F000CF911F910895DE2BF8CFCF93DF9390E03D
:10030000FC01E656FF4F24918A579F4FFC018491D0
:100310008823C9F090E0880F991FFC01E859FF4F2E
:10032000A591B491FC01EE58FF4FC591D491611194
:100330000DC09FB7F8948C91209582238C9388816F
:10034000282328839FBFDF91CF910895623051F415
:100350009FB7F8943C91822F809583238C93E881FA
:100360002E2BEFCF8FB7F894EC912E2B2C938FBFC1
:10037000EACF3FB7F89480913A0290913B02A09166
:100380003C02B0913D0226B5A89B05C02F3F19F055
:100390000196A11DB11D3FBFBA2FA92F982F882705
:1003A000BC01CD01620F711D811D911D42E0660FE0
:1003B000771F881F991F4A95D1F708958F929F92B2
:1003C000AF92BF92CF92DF92EF92FF924B015C010E
:1003D0000E94B9016B017C010E94B9016C197D0971
:1003E0008E099F09683E734081059105A8F321E0BD
:1003F000821A9108A108B10888EEC80E83E0D81EC1
:10040000E11CF11C81149104A104B10429F7FF90AF
:10041000EF90DF90CF90BF90AF909F908F90089516
:100420002FB7F894609136027091370280913802AC
:10043000909139022FBF089508950895AF92BF9209
:10044000CF92DF92EF92FF920F931F93CF93DF93A0
:100450006C017B018B01040F151FEB015E01AE18CF
:10046000BF08C017D10759F06991D601ED91FC91F1
:100470000190F081E02DC6010995892B79F7C5011E
:10048000DF91CF911F910F91FF90EF90DF90CF9070
:10049000BF90AF90089508952091A101260F3327B2
:1004A000331F21323105ECF42091EA01FC0190E088
:1004B00080E0243069F082E00895A091A1012191AB
:1004C000AC014F575E4FA40FB52FB11D2C93019671
:1004D000861798F38091A101680F6093A10180E0D5
:1004E000089581E008951092EA0181E08093E90186
:1004F0001092C40161E082E10E944F0161E083E15A
:100500000E944F01E9EBF0E080818E7F8083808143
:100510008D7F808388E48093B80085E48093BC005D
:100520000895CF93DF9391E0909380018823B9F0F1
:10053000C091B800D091BA008091BC008A7B8093B2
:10054000BC0060E082E10E944F0160E083E10E9414
:100550004F010E947302D093BA00C093B800DF919C
:10056000CF9108950895E0911A0280911902E81739
:1005700030F4F0E0E05AFE4F808190E008958FEF74
:100580009FEF089590911A02809119022FEF3FEF8B
:10059000981748F4E92FF0E0E05AFE4F208130E050
:1005A0009F5F90931A02C90108958091190290915A
:1005B0001A02891B990B0895CF92DF92EF92FF9256
:1005C0000F931F93CF93DF937C01CB018A0120917E
:1005D000F001222389F0EB016B01C40ED51ECC156E
:1005E000DD0569F06991D701ED91FC910190F081F1
:1005F000E02DC7010995F3CF642F0E944C02C8017A
:10060000DF91CF911F910F91FF90EF90DF90CF90EE
:100610000895CF93DF931F92CDB7DEB76983209102
:10062000F0012223F9F020911702203258F021E046
:1006300030E0FC013383228390E080E00F90DF9173
:10064000CF91089580911802E82FF0E0EF50FE4F0F
:10065000998190838F5F809318028093170281E0C5
:1006600090E0ECCF61E0CE0101960E944C02F7CF02
:10067000CF92DF92EF92FF920F931F93CF93DF936E
:10068000FC01C48121E02093F001C093110210927B
:100690001802109217028385682B8EE392E00E9465
:1006A0000903D0911702D13208F092C00E94B9011B
:1006B0006B017C018091EA01811165C082E0809329
:1006C000EA0181E08093E9018FEF8093E8011092C5
:1006D000E701D093E601A1EFB1E0E6ECF1E080E0C4
:1006E000D81385C01092C5018091C501CC0FC82BCD
:1006F000C093C5018091C401813009F07CC0109283
:10070000C4010E94B9016B017C018091C5018093F5
:10071000BB008091EC019091ED01A091EE01B091B0
:10072000EF01892B8A2B8B2B99F00E94B901009144
:10073000EC011091ED012091EE013091EF016C1967
:100740007D098E099F090617170728073907E0F169
:100750008091BC0083FDD9CF85EC8093BC000E94C2
:10076000B9016B017C018091EA01823009F445C036
:100770008091E8018F3F61F18091E801803241F181
:100780008091E80125C08091EC019091ED01A0914C
:10079000EE01B091EF01892B8A2B8B2B09F48ACFC4
:1007A0000E94B9010091EC011091ED012091EE0140
:1007B0003091EF016C197D098E099F090617170703
:1007C0002807390708F076CF8091EB010E9491024B
:1007D00010921802109217021092F001DF91CF913F
:1007E0001F910F91FF90EF90DF90CF9008959D9112
:1007F00091938F5F75CF85EEB0CF8091EC01909192
:10080000ED01A091EE01B091EF01892B8A2B8B2B8A
:1008100009F4A9CF0E94B9010091EC011091ED01FA
:100820002091EE013091EF016C197D098E099F092D
:10083000061717072807390708F095CFC5CF90E0AE
:1008400080E008958F929F92AF92BF920F931F9373
:10085000CF93DF93CDB7DEB7A1970FB6F894DEBF85
:100860000FBECDBF19A2423008F44AE08E010F5DE1
:100870001F4F842E912CB12CA12CA50194010E9414
:10088000610CE62FB901CA01EA3044F5E05DD801F8
:10089000EE938D01232B242B252B79F790E080E01C
:1008A000109769F0FD0101900020E9F73197AF0141
:1008B0004A1B5B0BBD0182E792E00E941E02A196DB
:1008C0000FB6F894DEBF0FBECDBFDF91CF911F9161
:1008D0000F91BF90AF909F908F900895E95CD7CF14
:1008E000FC0101900020E9F73197AF01481B590B3B
:1008F000BC0182E792E00C941E020F931F93CF93EA
:100900008C01C62F0E9438036C2F6460C8010E94BE
:1009100038036C2F6B7FC8010E94380383EC90E092
:100920000197F1F7CF911F910F9108950F931F93A6
:10093000CF93DF938C01D62FC42F607F642B0E944E
:100940007D0480E1D89FB00111246C2BC801DF9198
:10095000CF911F910F910C947D0441E00E94960469
:1009600081E090E00895CF92DF92EF92FF926C01C8
:10097000990FEE08FF08F7FE16C041E06DE282E72E
:1009800092E00E94960466277727CB016C197D09B7
:100990008E099F094AE00E9422040196FF90EF9081
:1009A000DF90CF9008954AE0C701B601FF90EF9025
:1009B000DF90CF900C942204CF93DF93CDB7DEB7B6
:1009C00028970FB6F894DEBF0FBECDBF98E0E8E0E1
:1009D000F1E0DE01119601900D929A95E1F7909168
:1009E0007A02981708F48FEF90E0880F991F21E0A2
:1009F00030E02C0F3D1F820F931FFC016081606867
:100A000040E082E792E028960FB6F894DEBF0FBE72
:100A1000CDBFDF91CF910C94960480E00E94DC045E
:100A20008EE291E00E94700481E00E94DC0481E487
:100A300091E00E94700480913302909134020A97F1
:100A400024F48CE391E00E94700480913302909131
:100A500034020E94B3048AE391E00E947004809102
:100A60003102909132020A9724F48CE391E00E94C3
:100A7000700480913102909132020E94B3048EE39F
:100A800091E00C947004EF92FF920F931F93CF9319
:100A9000DF937C018B01EA0180E00E94DC0486E4A4
:100AA00091E00E94700481E00E94DC0481E491E006
:100AB0000E9470048AE0E816F10424F48CE391E0CB
:100AC0000E947004C7010E94B3048AE391E00E946F
:100AD00070040A30110524F48CE391E00E94700444
:100AE000C8010E94B3048AE391E00E947004CA30F6
:100AF000D10524F48CE391E00E947004CE01DF91D3
:100B0000CF911F910F91FF90EF900C94B30485ED5E
:100B10008093BC008091EC019091ED01A091EE01D9
:100B2000B091EF010796A11DB11D23E0B695A795E1
:100B3000979587952A95D1F72091BC0024FD03C095
:100B40001092EA0108954091EC015091ED016091FD
:100B5000EE017091EF01452B462B472B69F300976F
:100B6000A105B10541F02AE22A95F1F700C00197ED
:100B7000A109B109E1CF8091EB010C9491020C9491
:100B8000210C1F920F920FB60F9211242F933F93B7
:100B90008F939F93AF93BF938091360290913702CA
:100BA000A0913802B09139023091350223E0230F31
:100BB0002D3758F50196A11DB11D20933502809364
:100BC000360290933702A0933802B0933902809195
:100BD0003A0290913B02A0913C02B0913D020196F5
:100BE000A11DB11D80933A0290933B02A0933C0259
:100BF000B0933D02BF91AF919F918F913F912F9103
:100C00000F900FBE0F901F90189526E8230F0296A5
:100C1000A11DB11DD2CF1F920F920FB60F921124BA
:100C20002F933F934F935F936F937F938F939F93F4
:100C3000AF93BF93CF93DF93EF93FF938091120213
:100C4000C0916E02D0E087FF24C010928500109200
:100C50008400809112028F5F8093120280911202B1
:100C6000082E000C990B8C179D0724F4809112021A
:100C70008C30C4F18091840090918500049680347A
:100C80009C4908F47AC08091840090918500049674
:100C900076C080911202082E000C990B8C179D07CC
:100CA000C4F6E09112028E2FEE0F990BFC01EE0FAD
:100CB000FF1FE80FF91FE65BFD4F808186FFC9CF5C
:100CC000E09112028E2FEE0F990BFC01EE0FFF1F29
:100CD000E80FF91FE65BFD4F808160E08F730E9493
:100CE0004F01B7CF2091840030918500E09112022E
:100CF0008E2FEE0F990BFC01EE0FFF1FE80FF91F6F
:100D0000E65BFD4F81819281820F931F9093890052
:100D100080938800E09112028E2FEE0F990BFC0158
:100D2000EE0FFF1FE80FF91FE65BFD4F808186FF86
:100D300011C0E09112028E2FEE0F990BFC01EE0F05
:100D4000FF1FE80FF91FE65BFD4F808161E08F73A5
:100D50000E944F01FF91EF91DF91CF91BF91AF9131
:100D60009F918F917F916F915F914F913F912F91C3
:100D70000F900FBE0F901F90189580E49CE9909300
:100D80008900809388008FEF80931202E3CF1F9237
:100D90000F920FB60F9211242F933F934F935F93AF
:100DA0006F937F938F939F93AF93BF93EF93FF9333
:100DB0008091B900887F803609F44AC0F0F5883206
:100DC00009F4A7C018F5803109F49BC0B8F4882352
:100DD00009F4F9C0883009F494C0FF91EF91BF91F4
:100DE000AF919F918F917F916F915F914F913F91C3
:100DF0002F910F900FBE0F901F901895883109F416
:100E000088C0803251F78093E80114C0803409F41F
:100E10009DC040F48033B9F38833F9F68093E8013C
:100E200085ECB0C0803509F485C0883509F496C0DA
:100E3000883499F60E948705D0CF883909F48CC090
:100E400038F5883729F050F4883611F0803729F6C4
:100E500083E08093EA011092C30157C0883809F4F7
:100E60007BC0803919F0803809F0B7CF8091C30179
:100E7000803208F071C0E091C30181E08E0F809351
:100E8000C3018091BB00F0E0ED55FE4F80833DC073
:100E9000803B39F0E0F4803A09F479C0883A09F0EF
:100EA0009CCF84E08093EA011092A2011092A101EC
:100EB000E0911502F091160209958091A10181112E
:100EC0000FC081E08093A1011092810109C0803C94
:100ED00009F4A6CF883C09F4A3CF883B09F07DCF65
:100EE000E091A20181E08E0F8093A201F0E0EF5724
:100EF000FE4F80818093BB009091A2018091A1015F
:100F000029C08091C5018093BB0085EC8093BC0013
:100F100064CF9091E7018091E601981758F5E09130
:100F2000E70181E08E0F8093E701F0E0EA53FE4F86
:100F30008081E9CFE091E70181E08E0F8093E701A6
:100F40008091BB00F0E0EA53FE4F80839091E7016F
:100F50008091E6019817C8F285E8D8CFE091E701C3
:100F600081E08E0F8093E7018091BB00F0E0EA53AF
:100F7000FE4F80838091E90181115CCF81E08093F5
:100F8000C40184EA8093BC001092EA0126CF85EC6C
:100F90008093BC001092EA018091C301803230F44A
:100FA000E091C301F0E0ED55FE4F10826091C30166
:100FB00070E0E0911302F091140283EA91E0099548
:100FC0001092C3010ACF1092E80134CF109241026F
:100FD0001092400288EE93E0A0E0B0E080934202DD
:100FE00090934302A0934402B093450284E191E0C0
:100FF00090933F0280933E02109275021092740209
:1010000086E291E0909373028093720287E280936C
:10101000760280E180937B0282E080937C021092D2
:101020007D0280916E028C3098F491E0980F90933D
:101030006E0280936F0290E0FC01EE0FFF1FE80F3D
:10104000F91FE65BFD4F88EB9BE092838183089557
:101050008FEF80936F020895CF93DF9300D000D07D
:10106000CDB7DEB7789484B5826084BD84B58160E5
:1010700084BD85B5826085BD85B5816085BD809163
:101080006E00816080936E001092810080918100DB
:1010900082608093810080918100816080938100D3
:1010A000809180008160809380008091B100846095
:1010B0008093B1008091B00081608093B0008091F6
:1010C0007A00846080937A0080917A0082608093B5
:1010D0007A0080917A00816080937A0080917A0012
:1010E000806880937A001092C10060E08EE00E94D8
:1010F0007D0162E083E00E947D0161E084E00E9466
:101100007D0180916F028C3008F051C061E08CE06D
:101110000E947D0180916F02282F30E0F901EE0FCF
:10112000FF1FE20FF31FE65BFD4F9081907C9C60F8
:10113000908310927002109271022CE0622F0E9434
:10114000920C829FB001112430E020E0AB01420FED
:10115000531FFA01EE0FFF1FE40FF51FE65BFD4F73
:10116000908196FD16C02F5F3F4F2C30310571F7EF
:1011700081110FC01092800082E080938100109254
:10118000850010928400B19A80916F0082608093F4
:101190006F00E0916F028E2F90E0FC01EE0FFF1FB9
:1011A000E80FF91FE65BFD4F80818064808390E04B
:1011B00080E00E948C0010921A0210921902109284
:1011C0001802109217020E9473028CE192E0909331
:1011D0001602809315028DE192E0909314028093A1
:1011E00013021092770280917C02823018F098E00E
:1011F0009093770280937A0262E370E080E090E05F
:101200000E94DE0160917D0282E792E00E94380335
:1012100068EE73E080E090E00E94DE0160E382E728
:1012200092E00E947D048BE496E40197F1F760E37D
:1012300082E792E00E947D042BE436E4C901019725
:10124000F1F760E382E792E00E947D0483E592E09B
:101250000197F1F760E282E792E00E947D046091DD
:101260007702606240E082E792E00E94960484E0A8
:101270008093780240E06CE082E792E00E9496045E
:1012800040E061E082E792E00E9496048BE39FE1F8
:101290000197F1F782E08093790240E066E082E70F
:1012A00092E00E94960440E062E082E792E00E94B1
:1012B00096042BE33FE1C9010197F1F788E08093A1
:1012C0007D0260E082E792E00E94380385E090E0D2
:1012D0000E94190C082F813009F01AC182E090E0B9
:1012E0000E94190C182F90E09093340280933302DF
:1012F00083E090E00E94190C282F30E03C832B8380
:10130000309332022093310284E090E00E94190C65
:10131000E82F212F30E0A0E1BEE00E94830C6B019A
:101320007C012B813C81ACE3B0E00E94830CA701DF
:101330009601260F371F481F591F2E0F311D411DC3
:10134000511DA8EEB3E00E944E0C60932D027093E5
:101350002E0280932F02909330020E94100260931D
:10136000290270932A0280932B0290932C020093FF
:10137000280210920701109206018091070188232C
:1013800009F4C9C00E94F10028E730E0DC010E94A6
:10139000B20C2FEF33E040E050E00E942F0CC90167
:1013A0006CE370E00E949E0C8B019C838B83709396
:1013B00034026093330290933202809331020E9490
:1013C000100224EF31E040E050E00E94610C21E087
:1013D0006A3F71058105910508F020E0622F84E0E5
:1013E0000E944F01809106018823E1F08091040161
:1013F000909105010817190749F480910201909115
:1014000003012B813C812817390761F010930501F6
:10141000009304018B819C819093030180930201CE
:101420000E940D050E942B01892B09F069C00E94C2
:10143000100200911B0210911C0220911D0230919C
:101440001E02601B710B820B930B633371058105C8
:10145000910508F455C00E94100260931B0270931E
:101460001C0280931D0290931E02E0913302409172
:101470003402A0913102B09132022CE330E00E949C
:10148000B20C6B017C0120E13EE0AE2FB42F0E9434
:10149000B20CA7019601260F371F481F591FA8EE4F
:1014A000B3E00E944E0C60932D0270932E02809345
:1014B0002F02909330026E2F90E080E00E94BF05D3
:1014C0006091310281E090E00E94BF0561E085E01B
:1014D00090E00E94BF050E94100260932902709361
:1014E0002A0280932B0290932C0291E09093280281
:1014F000109207011092060160E084E00E944F0103
:1015000020E030E0232B09F438CF0E94000035CFD3
:101510000E940D0532CF80912802882309F4EDC086
:101520000E9410026B017C018091290290912A0295
:10153000A0912B02B0912C0246015701881A990AFA
:10154000AA0ABB0A40902D0250902E0260902F02F2
:1015500070903002481859086A087B08C301B2012C
:1015600020E83EEE46E350E00E94610C2983190119
:1015700020E63AEE40E050E00E94610C2A832B8383
:101580003C83C301B20120E63AEE40E050E00E9405
:10159000610C28EE33E040E050E00E94610C722EB6
:1015A000022F132F0E942B01892B99F58091240281
:1015B00090912502A0912602B0912702892B8A2BB7
:1015C0008B2B41F4C0922402D0922502E092260295
:1015D000F09227028091240290912502A091260288
:1015E000B0912702C81AD90AEA0AFB0A28E8C216EB
:1015F00023E1D206E104F104A0F031E030930701C9
:101600003093060161E084E00E944F010E940D05C5
:1016100077CF109224021092250210922602109287
:101620002702698182E090E00E94BF056A8183E021
:1016300090E00E94BF05672D84E090E00E94BF0506
:1016400080910401909105012816390681F480915A
:101650000201909103012B813C812817390739F44D
:1016600080910001909101010817190799F03092BB
:101670000501209204018B819C819093030180934A
:1016800002011093010100930001A801BC01C101F6
:101690000E94430580912D0290912E02A0912F026D
:1016A000B091300288169906AA06BB0608F428CF26
:1016B00091E090932302109228020E9410026093FE
:1016C0001F0270932002809321029093220240E037
:1016D00061E082E792E00E9496048BE39FE101972C
:1016E000F1F780E00E94DC0484E591E00E94700440
:1016F00080EA90E00E948C0003CF8091230288232F
:1017000009F4FECE0E94100200911F0210912002E7
:101710002091210230912202601B710B820B930BEE
:10172000683B7B408105910508F4EACE10920701E1
:101730001092230231E0309328020E94F10028E742
:1017400030E0DC010E94B20C2FEF33E040E050E0CB
:101750000E942F0CC9016CE370E00E949E0CE62FE2
:10176000AC01609333027093340290933202809301
:10177000310220E13EE0A62FB72F0E94B20C6B0190
:101780007C012CE330E0DA010E94B20CA701960143
:10179000260F371F481F591FA8EEB3E00E944E0CBA
:1017A00060932D0270932E0280932F02909330024B
:1017B0006E2F90E080E00E94BF056091310281E0D1
:1017C00090E00E94BF0561E085E090E00E94BF05C7
:1017D0000E9410026093290270932A0280932B02C8
:1017E00090932C0290E080E00E948C008FEF9FEF9E
:1017F000909305018093040190930301809302016B
:10180000909301018093000110922402109225020E
:1018100010922602109227026091310270913202DA
:1018200050E040E080913302909134020E944305E1
:1018300067CEF999FECF92BD81BDF89A992780B500
:101840000895262FF999FECF1FBA92BD81BD20BD04
:101850000FB6F894FA9AF99A0FBE01960895052EDC
:1018600097FB1EF400940E94460C57FD07D00E947F
:10187000610C07FC03D04EF40C94460C5095409537
:10188000309521953F4F4F4F5F4F0895909580952C
:10189000709561957F4F8F4F9F4F08950E94830CE5
:1018A000A59F900DB49F900DA49F800D911D1124B4
:1018B0000895B7FF0C944E0C0E944E0C821B930BA4
:1018C0000895A1E21A2EAA1BBB1BFD010DC0AA1F81
:1018D000BB1FEE1FFF1FA217B307E407F50720F099
:1018E000A21BB30BE40BF50B661F771F881F991F14
:1018F0001A9469F760957095809590959B01AC015D
:10190000BD01CF010895A29FB001B39FC001A39F65
:10191000700D811D1124911DB29F700D811D112428
:10192000911D0895991B79E004C0991F961708F03E
:10193000961B881F7A95C9F78095089597FB072E07
:1019400016F4009407D077FD09D00E94B90C07FC6B
:1019500005D03EF4909581959F4F089570956195BF
:101960007F4F08950E94830CB7FF0895821B930B4D
:101970000895AA1BBB1B51E107C0AA1FBB1FA617D6
:10198000B70710F0A61BB70B881F991F5A95A9F728
:1019900080959095BC01CD010895EE0FFF1F059035
:0A19A000F491E02D0994F894FFCFB4
:1019AA00FFFFFFFFFFFF0101000040001400540089
:1019BA00000000000903DC021F04B202D502C202C1
:1019CA00B30200000000AD041E021F044B022020D7
:1019DA00205365742054696D65723A0030003A30BC
:1019EA0030202020200020202054696D65204C657D
:1019FA0066743A0054494D4527532055502100003A
:00000001FF
